:100B6E00EFD394034003020C1BED94074003020CD9
:100B7E001BEB64017049EF14601B14602614603186
:100B8E0024036003020C1BA8057401088002C33302
:100B9E00D8FC428022A8057401088002C333D8FC19
:100BAE00429022A8057401088002C333D8FC42A0EB
:100BBE0022A8057401088002C333D8FC42B022EB90
:100BCE00704BEF1460191460251460312403703DCE
:100BDE00A8057401088002C333D8FCF4528022A801
:100BEE00057401088002C333D8FCF4529022A80584
:100BFE007401088002C333D8FCF452A022AF05A8BA
:0E0C0E00077401088002C333D8FCF452B022F0
:100D6100BD011EEF14600E14600F14601024037097
:100D7100307580FF227590FF2275A0FF2275B0FFAC
:100D810022ED701DEF14600E14600F146010240327
:100D9100700FE4F58022E4F59022E4F5A022E4F559
:020DA100B0227E
:100D0E00EFD39403504AED94075045EF1460171437
:100D1E00602114602B24037037A805E5800880023B
:100D2E00C313D8FC8027A805E590088002C313D80A
:100D3E00FC801AA805E5A0088002C313D8FC800D1C
:100D4E00AF05A807E5B0088002C313D8FC5401FE16
:020D5E00AF06DE
:010D60002270
:100E4600EFD394035019EF14600D14600D14600D68
:100E56002403700B8D80228D90228DA0228DB022CE
:0C0DD8000A1A039F250D9949411F0109CB
:050E7C007D01020D6183
:100E6600EDD39409500FEDC394004009741A2DF880
:060E7600E6FD120E46220B
:020E02008F2936
:100E04008D2AE52AD394095016AD2AAF29120E660D
:0F0E14007FE87E037D007C00120DA3052A80E39A
:010E230022AC
:020E24008F2B12
:100E26008D2CE52CC394004016AD2CAF2B120E660C
:0F0E36007FE87E037D007C00120DA3152C80E366
:010E4500228A
:080DA3008F288E278D268C2578
:100DAB00900000AF82AE83EE3395E0FDFCAB28AA3A
:100DBB0027A926A825D3120CFD4011E4FFFE0FBF77
:0C0DCB0000010EBE01F8BF04F5A380D7A4
:010DD70022F9
:100DE400010800011202011103011005010F09019C
:0D0DF4000D05010C05061320100804020176
:1009D200E4F524E5086003020B6DFD7F01120D0EA4
:1009E2008F097D017F01120D0E8F0E7D027F011294
:1009F2000D0E8F0B7D037F01120D0E8F0AE524145D
:100A0200601814602014602814603024047037AD1C
:100A1200137F03120E46AD128035AD147F03120E02
:100A220046AD11802AAD157F03120E46AD10801F10
:100A3200AD167F03120E46AD0F8014AD177F031261
:100A42000E46AD0D8009AD187F03120E46AD0C7F28
:100A520002120E66E509701D7F14FEFDFC120DA345
:100A6200E5097011750801E509700AFD7F01120D93
:100A72000E8F0980F2E50B702C7F14FEFDFC120D27
:100A8200A3E50B7020E5242401FFE433FE7C007D06
:100A920006120CA88D24E50B700B7D027F01120D4E
:100AA2000E8F0B80F1E50A60030209D57F14FEFD6B
:100AB200FC120DA3E50A60030209D5E52414602E99
:100AC20014604C14605C14606C2404707BE511D3D8
:100AD2009403E5124007045401F512807C2401FFBF
:100AE200E433FE7C007D03120CA88D12806BE512AC
:100AF200B40209E511045403F511805DE5112401E6
:100B0200FFE433FE7C007D0A120CA88D11804AE5B9
:100B1200102401FFE433FE7C007D06120CA88D1028
:100B22008037E50F2401FFE433FE7C007D0A120CBE
:100B3200A88D0F8024E50D2401FFE433FE7C007DA7
:100B420006120CA88D0D8011E50C2401FFE433FE82
:100B52007C007D0A120CA88D0CE50A60030209D5FF
:0B0B62007D037F01120D0E8F0A80EE54
:010B6D002265
:100800007F02120E7C7D017F03120D617509017557
:100810000E01750B01750A01E4FD7F01120D0E8FAB
:10082000097D017F01120D0E8F0E7D027F01120DD9
:100830000E8F0B7D037F01120D0E8F0AE509701DCF
:100840007F14FEFDFC120DA3E5097011750801E58A
:1008500009700AFD7F01120D0E8F0980F2E5086014
:10086000B7E4F519AD187F03120E46AD0C7F0212E6
:100870000E667F057E007D007C00120DA3AD177F04
:1008800003120E46AD0D7F02120E667F057E007DBF
:10089000007C00120DA3AD167F03120E46AD0F7F34
:1008A00002120E667F057E007D007C00120DA3AD56
:1008B000157F03120E46AD107F02120E667F057E75
:1008C000007D007C00120DA3AD147F03120E46AD17
:1008D000117F02120E667F057E007D007C00120DE6
:1008E000A3AD137F03120E46AD127F02120E667F78
:1008F000057E007D007C00120DA3E50E7005F50855
:100900001209D20519E519C394215003020864E5C0
:100910000C2401FFE433FE7C007D0A120CA88D0C30
:10092000E50C7011E50D2401FFE433FE7C007D062B
:10093000120CA88D0DE50D7015E50C7011E50F2456
:1009400001FFE433FE7C007D0A120CA88D0FE50F39
:100950007019E50D7015E50C7011E5102401FFE428
:1009600033FE7C007D06120CA88D10E510702CE57E
:100970000F7028E50D7024E50C7020E512B4020A12
:10098000E511B40305E4F5118011E5112401FFE43C
:1009900033FE7C007D0A120CA88D11E51160030264
:1009A0000818E5106003020818E50F600302081834
:1009B000E50D6003020818E50C6003020818E51253
:1009C0002401FFE433FE7C007D03120CA88D12028B
:0209D000081805
:03000000020C1CD3
:0C0C1C00787FE4F6D8FD75812C020C6393
:100CA800BC000BBE0029EF8DF084FFADF022E4CC30
:100CB800F875F008EF2FFFEE33FEEC33FCEE9DECF9
:100CC800984005FCEE9DFE0FD5F0E9E4CEFD22ED3F
:100CD800F8F5F0EE8420D21CFEADF075F008EF2F89
:100CE800FFED33FD4007985006D5F0F222C398FD7A
:050CF8000FD5F0EA2217
:100CFD00EB9FF5F0EA9E42F0E99D42F0E89C45F04D
:010D0D0022C3
:100C2800020800E493A3F8E493A34003F68001F2DA
:100C380008DFF48029E493A3F85407240CC8C333CD
:100C4800C4540F4420C8834004F456800146F6DF9C
:100C5800E4800B0102040810204080900DD8E47E47
:100C6800019360BCA3FF543F30E509541FFEE49391
:100C7800A360010ECF54C025E060A840B8E493A358
:100C8800FAE493A3F8E493A3C8C582C8CAC583CA83
:100C9800F0A3C8C582C8CAC583CADFE9DEE780BE3B
:010E010000F0
:00000001FF
