:0C0EA0000A083F065B4F666D7D077F6F00
:050ECC00E4FD020C250D
:100E5600EDD39409500FEDC39400400974082DF8A2
:060E6600E6FD120DE02282
:020DBE008F2381
:100DC0008D24E524D394095016AD24AF23120E567A
:0F0DD0007FE87E037D007C00120CE9052480E3A0
:010DDF0022F1
:020E1F008F251D
:100E21008D26E526C394004012AD26AF25120E563D
:0B0E31007F017E00120D1E152680E7D9
:010E3C002293
:080CE9008F1E8E1D8D1C8C1B5B
:100CF100900000AF82AE83EE3395E0FDFCAB1EAAFF
:100D01001DA91CA81BD3120DAD4011E4FFFE0FBF9E
:0C0D110000010EBE01F8BF04F5A380D75E
:010D1D0022B3
:100A4300EFD394034003020AF0ED94074003020A34
:100A5300F0EB64017049EF14601B146026146031DD
:100A630024036003020AF0A8057401088002C3335B
:100A7300D8FC428022A8057401088002C333D8FC45
:100A8300429022A8057401088002C333D8FC42A017
:100A930022A8057401088002C333D8FC42B022EBBC
:100AA300704BEF1460191460251460312403703DFA
:100AB300A8057401088002C333D8FCF4528022A82D
:100AC300057401088002C333D8FCF4529022A805B0
:100AD3007401088002C333D8FCF452A022AF05A8E6
:0E0AE300077401088002C333D8FCF452B0221D
:100C2500BD011EEF14600E14600F146010240370D4
:100C3500307580FF227590FF2275A0FF2275B0FFE9
:100C450022ED701DEF14600E14600F146010240364
:100C5500700FE4F58022E4F59022E4F5A022E4F596
:020C6500B022BB
:100B7D00EFD39403504CED94075047EF14601714C6
:100B8D00602114602B2403703BA805E580088002CA
:100B9D00C313D8FC8027A805E590088002C313D89D
:100BAD00FC801AA805E5A0088002C313D8FC800DAF
:100BBD00AF05A807E5B0088002C313D8FC5401FEA9
:060BCD0080027EFFAF066E
:010BD30022FF
:100DE000EFD394035019EF14600D14600D14600DCF
:100DF0002403700B8D80228D90228DA0228DB02235
:050ED100120BD480FEAD
:100BD4007B01E4FD7F02120A43E4FB7D017F0212E4
:100BE4000A43E4FB7D027F02120A43E4FB7D037F98
:100BF40002120A43120E6C120E82120EC3E4F51690
:100C04007512017F01120ECCE4F517F518F519756C
:100C14001A03AD1A7F01120E56E4F515F513F514F7
:010C240022AD
:03002B00020800C8
:10080000C0E0C0F0C083C082C0D075D000C000C0BE
:1008100001C002C003C004C005C006C007C2CFE4C7
:10082000FB7D037F02120A43E512640160030209A3
:100830002DE5161460491460771470030208DD2456
:100840000360030209127B01E4FD7F02120A43E404
:10085000FB7D017F02120A43E4FB7D027F02120A44
:10086000430518E518700205176464451760030214
:10087000092DF517F518120E3D75160102092D7B8D
:1008800001E4FD7F02120A437B017D017F02120A0F
:1008900043E4FB7D027F02120A430518E51870024B
:1008A000051764644517600302092D751602805709
:1008B000E4FBFD7F02120A43E4FB7D017F02120A82
:1008C000437B017D027F02120A430518E51870027E
:1008D0000517646445177055751603802AE4FBFDFF
:1008E0007F02120A437B017D017F02120A43E4FB6F
:1008F0007D027F02120A430518E51870020517648D
:100900006445177028F516120E3D7517007518000E
:10091000801B7B01E4FD7F02120A437B017D017F86
:1009200002120A437B017D027F02120A43D007D0E4
:1009300006D005D004D003D002D001D000D0D0D052
:0809400082D083D0F0D0E03238
:03000300020C6785
:100C6700C0E0C0F0C083C082C0D075D000C000C053
:100C770001C002C003C004C005C006C007120ED9D8
:100C8700751201120ED6D007D006D005D004D003B6
:100C9700D002D001D000D0D0D082D083D0F0D0E025
:010CA700321A
:03001300020CA834
:100CA800C0E0C0F0C083C082C0D075D000C000C012
:100CB80001C002C003C004C005C006C007120ED997
:100CC800751200120ED6D007D006D005D004D00376
:100CD800D002D001D000D0D0D082D083D0F0D0E0E4
:010CE80032D9
:100E3D007B017D037F02120A437F327E00120E007A
:090E4D00E4FB7D037F02020A436D
:03001B000209488F
:10094800C0E0C0F0C083C082C0D075D000C000C075
:1009580001C002C003C004C005C006C007C28FE5BD
:100968001264016003020A28E515146041146073DB
:1009780024026003020A28AD1A7F01120E56E514FC
:1009880064174513701EF513F514E51A4519700719
:10099800F519751A03803DE51A151A7002151975AF
:1009A8001500807C0514E51470700513806CAD1A71
:1009B8007F01120E56E51464174513701CF513F5E4
:1009C80014E51A451970057515028032E51A151ACD
:1009D8007002151975150180470514E51470020594
:1009E800138037AD1A7F01120E56E51464174513AC
:1009F8007020F513F514E51A45197009F515F51960
:100A0800751A03801BE51A151A7002151975150257
:100A1800800E0514E51470020513758D3C758BB0B6
:100A2800D007D006D005D004D003D002D001D00022
:0B0A3800D0D0D082D083D0F0D0E032CC
:090EC300D2A8D2AAD2ABD2AF2210
:030ED600D2AF2276
:030ED900C2AF2283
:100E8200438910758D63758BC0D2ABD2AFD28E22DF
:100E6C0075C80475CD3C75CB3C75CCB075CAB0D289
:060E7C00ADD2AFD2CA2284
:0B0EAD005389F0EF42898C8C8D8A2263
:0E0E920053890FEFC454F042898C8D8D8B2252
:0B0EB80053C8F0EF42C88CCB8DCA225B
:030EDC00D28C2293
:030EDF00D28E228E
:030EE200D2CA224F
:030EE500C28C229A
:030EE800C28E2295
:030EEB00C2CA2256
:100E00007C037DE8120D9BC3E49FFDE49EFC7F0103
:0E0E1000120EAD120EDC308DFD120EE5C28DFD
:010E1E0022B1
:100D74007C037DE8120D9BE48F228E21F520F51F64
:100D8400C39FFDE49EFC7F11120E92120EDF308F82
:060D9400FD120EE8C28F03
:010D9A002236
:040D1E008E278F2865
:100D2200E4FBFAC3EB9528EA9527501A9000007F5E
:100D3200327E00120E00A3E5826414458370F00B2C
:060D4200BB00010A80DD88
:010D48002288
:040D49008E298F2A36
:100D4D00E4FBFAC3EB952AEA9529501A9000007F2F
:100D5D00327E00120D74A3E5826414458370F00B8E
:060D6D00BB00010A80DD5D
:010D7300225D
:03000000020AF100
:0C0AF100787FE4F6D8FD75812A020B38EE
:100D9B00EF8DF0A4A8F0CF8CF0A428CE8DF0A42E6C
:020DAB00FE2226
:100DAD00EB9FF5F0EA9E42F0E99D42F0E89C45F09C
:010DBD002213
:100AFD00020ED1E493A3F8E493A34003F68001F230
:100B0D0008DFF48029E493A3F85407240CC8C333F9
:100B1D00C4540F4420C8834004F456800146F6DFC8
:100B2D00E4800B0102040810204080900EA0E47EAA
:100B3D00019360BCA3FF543F30E509541FFEE493BD
:100B4D00A360010ECF54C025E060A840B8E493A384
:100B5D00FAE493A3F8E493A3C8C582C8CAC583CAAF
:100B6D00F0A3C8C582C8CAC583CADFE9DEE780BE67
:010EAC000045
:00000001FF
