:080A75008F158E148D138C12F5
:100A7D00900000AF82AE83EE3395E0FDFCAB15AA7E
:100A8D0014A913A812D3120B634011E4FFFE0FBF7C
:0C0A9D0000010EBE01F8BF04F5A380D7D5
:010AA900222A
:0C0C3D000A083F065B4F666D7D077F6F65
:050C6700E4FD020A3368
:100BF300EDD39409500FEDC39400400974082DF808
:060C0300E6FD120B962233
:020B74008F1AD6
:100B76008D1BE51BD394095016AD1BAF1A120BF350
:0F0B86007FE87E037D007C00120A75051B80E36B
:010B9500223D
:020BD5008F1C73
:100BD7008D1DE51DC394004012AD1DAF1C120BF314
:0B0BE7007F017E00120AAA151D80E7A6
:010BF20022E0
:10080000EFD3940340030208ADED940740030208C0
:10081000ADEB64017049EF14601B14602614603165
:10082000240360030208ADA8057401088002C333E5
:10083000D8FC428022A8057401088002C333D8FC8A
:10084000429022A8057401088002C333D8FC42A05C
:1008500022A8057401088002C333D8FC42B022EB01
:10086000704BEF1460191460251460312403703D3F
:10087000A8057401088002C333D8FCF4528022A872
:10088000057401088002C333D8FCF4529022A805F5
:100890007401088002C333D8FCF452A022AF05A82B
:0E08A000077401088002C333D8FCF452B02262
:100A3300BD011EEF14600E14600F146010240370C8
:100A4300307580FF227590FF2275A0FF2275B0FFDD
:100A530022ED701DEF14600E14600F146010240358
:100A6300700FE4F58022E4F59022E4F5A022E4F58A
:020A7300B022AF
:1009DC00EFD39403504CED94075047EF1460171469
:1009EC00602114602B2403703BA805E5800880026D
:1009FC00C313D8FC8027A805E590088002C313D840
:100A0C00FC801AA805E5A0088002C313D8FC800D51
:100A1C00AF05A807E5B0088002C313D8FC5401FE4B
:070A2C0080027EFFAF0622ED
:100B9600EFD394035019EF14600D14600D14600D1B
:100BA6002403700B8D80228D90228DA0228DB02281
:070C6000D2A8D288D2AF2216
:030C7100D2AF22DD
:030C7400C2AF22EA
:100C1F00438910758D3C758BB0D2ABD2AFD28E227B
:100C090075C80475CD3C75CB3C75CCB075CAB0D2EE
:060C1900ADD2AFD2CA22E9
:050C6C00120B0080FEE8
:100B0000E4FBFD7F02120800E4FB7D017F02120876
:100B1000007B017D027F021208007B017D037F03C1
:0A0B2000120800120C607522022278
:030003000208AE42
:1008AE00C0E0C0F0C083C082C0D075D000C000C010
:1008BE0001C002C003C004C005C006C007E5220483
:1008CE005403F52214601714602114602A24037057
:1008DE003B7B01E4FD7F02120800E4FB80237B01D9
:1008EE00E4FD7F021208007B018016E4FBFD7F020F
:1008FE00120800E4FB8020E4FBFD7F021208007B5F
:10090E00017D017F02120800E4FB80147B01E4FDEF
:10091E007F021208007B017D017F021208007B011D
:10092E007D027F02120800D007D006D005D004D079
:10093E0003D002D001D000D0D0D082D083D0F0D05E
:02094E00E03295
:0B0C4A005389F0EF42898C8C8D8A22C8
:0E0C2F0053890FEFC454F042898C8D8D8B22B7
:0B0C550053C8F0EF42C88CCB8DCA22C0
:030C7700D28C22FA
:030C7A00D28E22F5
:030C7D00D2CA22B6
:030C8000C28C2201
:030C8300C28E22FC
:030C8600C2CA22BD
:100BB6007C037DE8120B51C3E49FFDE49EFC7F019C
:0E0BC600120C4A120C77308DFD120C80C28D7D
:010BD40022FE
:100B2A007C037DE8120B51E48F198E18F517F51620
:100B3A00C39FFDE49EFC7F11120C2F120C7A308F9A
:060B4A00FD120C83C28FB6
:010B50002282
:040AAA008E1E8F1FEE
:100AAE00E4FBFAC3EB951FEA951E501A9000007FE7
:100ABE00327E00120BB6A3E5826414458370F00BF0
:060ACE00BB00010A80DDFF
:010AD40022FF
:040AD5008E208F21BF
:100AD900E4FBFAC3EB9521EA9520501A9000007FB8
:100AE900327E00120B2AA3E5826414458370F00B51
:060AF900BB00010A80DDD4
:010AFF0022D4
:03000000020950A2
:0C095000787FE4F6D8FD7581220209973B
:100B5100EF8DF0A4A8F0CF8CF0A428CE8DF0A42EB8
:020B6100FE2272
:100B6300EB9FF5F0EA9E42F0E99D42F0E89C45F0E8
:010B7300225F
:10095C00020C6CE493A3F8E493A34003F68001F239
:10096C0008DFF48029E493A3F85407240CC8C3339C
:10097C00C4540F4420C8834004F456800146F6DF6B
:10098C00E4800B0102040810204080900C3DE47EB2
:10099C00019360BCA3FF543F30E509541FFEE49360
:1009AC00A360010ECF54C025E060A840B8E493A327
:1009BC00FAE493A3F8E493A3C8C582C8CAC583CA52
:1009CC00F0A3C8C582C8CAC583CADFE9DEE780BE0A
:010C490000AA
:00000001FF
